:100000000C94CA010C94F2010C94F2010C94F80ABD
:100010000C94F80A0C94F80A0C94F2010C94F20176
:100020000C94F2010C94F2010C94F2010C94F20184
:100030000C94F2010C94F2010C94F2010C94F20174
:100040000C9430290C94F2010C945A260C948C26B2
:100050000C94F2010C94F2010C94F2010C94F20154
:100060000C94B20F0C94F201BE10C210C210C21058
:10007000C210C210C210C210D20FC210C210C210E1
:10008000C210C210C210C210D20FC210C210C210D1
:10009000C210C210C210C210DA0FC210C210C210B9
:1000A000C210C210C210C2100010C210C210C21082
:1000B000C210C210C210C210DA0FC210C210C21099
:1000C000C210C210C210C2100610C210C210C2105C
:1000D000C210C210C210C2100C10C210C210C21046
:1000E000C210C210C210C2101E10C210C210C21024
:1000F000C210C210C210C2104810C210C210C210EA
:10010000C210C210C210C2101210C210C210C2100F
:10011000C210C210C210C2102C10C210C210C210E5
:10012000C210C210C210C2104B10C210C210C210B6
:10013000C210C210C210C2104B10C210C210C210A6
:10014000C210C210C210C2104B10C210C210C21096
:10015000C210C210C210C2104B10C210C210C21086
:10016000C210C210C210C2105410C210C210C2106D
:10017000C210C210C210C2108510C210C210C2102C
:10018000C210C210C210C2105410C210C210C2104D
:10019000C210C210C210C2108510C210C210C2100C
:1001A000C210C210C210C2106C10C210C210C21015
:1001B000C210C210C210C2108910C210C210C210E8
:1001C000C210C210C210C2108910C210C210C210D8
:1001D000C210C210C210C2109E10C210C210C210B3
:1001E000C210C210C210C210B810C210C210C21089
:1001F000C210C210C210C210B810084AD73B3BCE82
:10020000016E84BCBFFDC12F3D6C74319ABD568315
:100210003DDA3D00C77F11BED9E4BB4C3E916BAACD
:10022000AABE000000803F05A84CCDB2D44EB9381C
:1002300036A9020C50B9918688083CA6AAAA2ABE03
:10024000000000803F0664EC1B3C04BC163E3BE50E
:10025000B93CC93C37C29E5A3D660498083EEA69DB
:10026000AAAA3E000000803F07634236B79BD8A78A
:100270001A39685618AEBAAB558C1D3CB7CC5763CB
:10028000BD6DEDFD753EF6177231BF000000803F79
:1002900008000000BE922449123EABAAAA2ABECD95
:1002A000CCCC4C3E00000080BEABAAAAAA3E000007
:1002B0000000BF000000803F0000000000084178FF
:1002C000D3BB4387D1133D190E3CC3BD4282AD2B36
:1002D0003E68EC8276BED98FE1A93E4C80EFFFBE2E
:1002E00001C4FF7F3F00000000006364696E6F700F
:1002F000737578585B004E414E494E495459494EEA
:1003000046CDCCCC3D0AD7233C17B7D13877CC2B80
:10031000329595E6241FB14F0A000020410000C825
:100320004200401C4620BCBE4CCA1B0E5AAEC59DA6
:100330007400000008000201000003040700000030
:1003400000000000000102040810204080010204A7
:10035000081020010204081020040404040404040A
:10036000040202020202020303030303030000006B
:100370000023002600290000000000250028002B93
:100380000000000000240027002A00006312FC1572
:10039000BC26031611241FBECFEFD8E0DEBFCDBFB1
:1003A00012E0A0E0B1E0ECE1F4E602C005900D92AD
:1003B000A835B107D9F725E0A8E5B2E001C01D9244
:1003C000A636B207E1F711E0C9ECD1E004C02197ED
:1003D000FE010E94512BC63CD107C9F70E94EA26B4
:1003E0000C9401320C940000CF93DF93EC0160E099
:1003F0008A810E94932A61E08A810E94572A60E0E4
:1004000088810E94932A61E088810E94572A61E0D6
:1004100089810E94572A61E08A810E94932A84E0A0
:1004200090E00E94E129DF91CF91089560E0FC0106
:1004300082810E94932A84E090E00E94E12908953D
:100440000F931F93CF93DF938C01D0E0C0E0C830AF
:10045000B0F561E0F80180810E94932A81E090E08C
:100460000E94E12960E0F80180810E94932A81E0E6
:1004700090E00E94E129F80181810E94C22A892B23
:1004800071F081E090E0A0E0B0E00C2E04C0880F95
:10049000991FAA1FBB1F0A94D2F7D82B0EC081E068
:1004A00090E0A0E0B0E00C2E04C0880F991FAA1FB6
:1004B000BB1F0A94D2F78095D823CF5FC8CF8D2F6A
:1004C000DF91CF911F910F910895EF92FF920F93BB
:1004D0001F93CF93DF938C01E62EF42EC0E0D0E083
:1004E000C830D10584F56E2D70E00C2E02C07595D4
:1004F00067950A94E2F76170F80181810E94932A5E
:1005000081E090E00E94E12961E0F80180810E9491
:10051000932A81E090E00E94E129FF2049F0C73052
:10052000D10531F460E0F80181810E94572A09C0A9
:1005300060E0F80180810E94932A81E090E00E94AF
:10054000E1292196CDCFDF91CF911F910F91FF909F
:10055000EF900895CF92DF92EF92FF920F931F9347
:10056000CF93DF936C018B010E94F40141E06FEBAC
:10057000C6010E946502C0E0D0E0C830D10564F435
:1005800078018FEFE81AF80AC6010E942002F801EC
:10059000808321968701F1CFC6010E941602DF9168
:1005A000CF911F910F91FF90EF90DF90CF90089522
:1005B000CF92DF92EF92FF920F931F93CF93DF932F
:1005C0006C018B010E94F40140E06EEBC6010E94B9
:1005D0006502C0E0D0E0C830D1056CF478018FEF3F
:1005E000E81AF80AF801608140E0C6010E9465023D
:1005F00021968701F0CFC6010E941602DF91CF91AC
:100600001F910F91FF90EF90DF90CF900895FF9290
:100610000F931F93CF93DF93EC01F42E8B010E7F8A
:100620000E94F40140E0602FCE010E94650240E08C
:100630006F2DCE010E946502CE010E941602DF914D
:10064000CF911F910F91FF900895CF93DF93EC010D
:10065000688349832A8340E06EE870E00E940703C4
:1006600040E060E970E0CE010E940703DF91CF9186
:100670000895AF92BF92CF92EF920F93CF93DF93F3
:10068000FC01AAE5B2E088E0ED0119928A95E9F74C
:100690009DEC699F812D1124869586958695582F0E
:1006A000550F352F330F330F350F631B6F703C9190
:1006B000307F632B8770382F3295307F862F8F786D
:1006C000832B8C93499F812D112486958695869541
:1006D000582F550F352F330F330F350F431BABE515
:1006E000B2E04F703C91307F432B8770382F3295AA
:1006F000307F842F8F78832B8C93299F812D112419
:10070000869586958695482F440F342F330F330FE7
:10071000340F231BACE5B2E02F703C91307F232BCC
:100720008370382F3295307F822F8F7C832B8C9370
:10073000E99E212D1124269526952695322F330FDB
:10074000832F880F880F830F4E2D481BCDE5D2E0F5
:10075000842F8F704881407F482B2370322F329531
:10076000307F242F2F7C232B2883C99E912D112489
:10077000969596959695292F220F822F880F880F90
:10078000820FC81A8C2D8F702981207FC22EC82A13
:1007900090FBC4F8C98207708A81887F082B0A837E
:1007A000C501805D97406AE070E00E94FC2A629576
:1007B000607F8F70682B6B836AE572E0CF010E94C7
:1007C000D802DF91CF910F91EF90CF90BF90AF9073
:1007D0000895CF93DF93EC016AE572E00E94AA02CC
:1007E00080915A02282F22952F702770982F9F7082
:1007F000220F822F880F880F280F822F890F8B835B
:1008000080915B02282F22952F702770982F9F7060
:10081000220F822F880F880F280F822F890F8C8339
:1008200080915C02282F22952F702370982F9F7043
:10083000220F822F880F880F280F822F890F8D8318
:1008400080915F0287708E8380915D02282F2295B0
:100850002F702370982F9F70220F822F880F880F80
:10086000280F822F890F8F8380915E0284FB2227BD
:1008700020F9982F9F70822F880F282F220F220F88
:10088000820F890F888720916002822F82958F7056
:1008900090E0AC01440F551F880F991F880F991FD6
:1008A000880F991F840F951F2F70820F911D805301
:1008B000984F9A878987DF91CF910895FC01118223
:1008C00010820895CF92DF92EF92FF920F931F93C1
:1008D000FC018789908D9A01AB01281B390B4109D6
:1008E0005109A589B6890E94572B6B017C010B2EFB
:1008F000BFE0F594E794D794C794BA95D1F7B02D9B
:1009000067857089CB01770FAA0BBB0BBC01CD01AA
:10091000052E5BE0660F771F881F991F5A95D1F748
:10092000502D218932898901330F220B330BA90104
:1009300098012C0D3D1D4E1D5F1D0E94322BC701DD
:10094000B601620F731F841F951F1F910F91FF90B7
:10095000EF90DF90CF900895EF920F931F93CF9376
:10096000DF9300D0CDB7DEB76A83EE24E39401E0D5
:1009700010E09E012F5F3F4F41E050E0BE016E5FEF
:100980007F4FFC01808191810E947D0889810F90B9
:100990000F90DF91CF911F910F91EF900895EF92FB
:1009A0000F931F93CF93DF9300D01F92CDB7DEB785
:1009B0006B83EE24E39402E010E09E012F5F3F4F33
:1009C00041E050E0BE016D5F7F4FFC01808191816D
:1009D0000E947D082A81898190E0982F8827822BA8
:1009E0000F900F900F90DF91CF911F910F91EF908B
:1009F0000895EF92FF920F931F93CF93DF93EC0133
:100A00007A01643008F063E06A83888199810097F5
:100A100011F00E94FB2686E090E00E94F9268C01EE
:100A2000A70167E70E945F071983088361E0C80197
:100A30000E949007182F882309F44BC060EDCE0167
:100A40000E94AC04853509F043C06AEACE010E94D9
:100A5000CF049C838B836CEACE010E94CF049E83DB
:100A60008D836EEACE010E94CF0498878F8360EB5E
:100A7000CE010E94CF049C8B8B8B62EBCE010E9437
:100A8000CF049E8B8D8B64EBCE010E94CF04988F98
:100A90008F8B66EBCE010E94CF049A87898768EB23
:100AA000CE010E94CF049C878B876AEBCE010E9407
:100AB000CF049E878D876CEBCE010E94CF04988B6C
:100AC0008F876EEBCE010E94CF049A8B898B01C079
:100AD00010E0812FDF91CF911F910F91FF90EF9048
:100AE0000895EF92FF920F931F93CF93DF9300D05F
:100AF000CDB7DEB769834A83EE24E394F12C8E01EF
:100B00000F5F1F4F21E041E050E0BE016E5F7F4F5D
:100B1000FC01808191810E94A6070F900F90DF91C8
:100B2000CF911F910F91FF90EF900895CF93DF9396
:100B3000EC014EE264EF0E94710565E070E080E038
:100B400090E00E94A52966EFCE010E94CF04DF91BC
:100B5000CF910895CF92DF92EF92FF92CF93DF93E0
:100B6000EC014A814295440F440F407C4C5C64EF99
:100B70000E9471058A81811107C065E070E080E004
:100B800090E00E94A52918C0813039F468E070E037
:100B900080E090E00E94A5290FC0823039F46EE019
:100BA00070E080E090E00E94A52906C06AE170E054
:100BB00080E090E00E94A52966EFCE010E94CF045C
:100BC0006C01E12CF12CFE2CED2CDC2CCC2468EFFC
:100BD000CE010E94AC04A7019601282BDA01C901BD
:100BE0004A8128E030E0241B3109BC01CD0104C05A
:100BF00096958795779567952A95D2F7DF91CF914E
:100C0000FF90EF90DF90CF9008952F923F924F92F8
:100C10005F926F927F928F929F92AF92BF92CF928C
:100C2000DF92EF92FF921F93CF93DF9300D000D01B
:100C300000D0CDB7DEB71C010E9496056C01E12CF7
:100C4000F12CC1010E94AA0569837A838B839C835E
:100C5000B701A601C1010E9462046B017C0120EA78
:100C6000C21A2FE0D20AE108F108D1011B96ED91DA
:100C7000FC911C97A7019601C701B6010E94EC2ABE
:100C80004B015C01072E7CE0B594A7949794879460
:100C90007A95D1F7702DDF01A50194010E94622B96
:100CA0002B013C01032E3BE07594679457944794C5
:100CB0003A95D1F7302DF101A581B681A7019601B2
:100CC0000E94622BDC01CB01072E7BE0B595A79536
:100CD000979587957A95D1F7702DB301A201480FAA
:100CE000591F6A1F7B1F83819481092E000CAA0B58
:100CF000BB0B880F991FAA1FBB1F880F991FAA1F24
:100D0000BB1F840F951FA61FB71F1281012E04C0A1
:100D1000880F991FAA1FBB1F0A94D2F70296A11D24
:100D2000B11DAC01BD01BB2324F44D5F5F4F6F4F7C
:100D30007F4F2A013B0175946794579447947594AB
:100D4000679457944794F101A781B085A701960154
:100D50000E94622B6B017C010B2EBDE0F594E794A1
:100D6000D794C794BA95D1F7B02DA185B285A501C6
:100D700094010E94622BBB2797FDB095AB2F8C0D81
:100D80009D1DAE1DBF1D0296A11DB11DAC01BD0173
:100D900075956795579547957595679557954795B7
:100DA000A389B4899A01AB0130584F4F5F4F0E941D
:100DB000572B6B017C010B2EBFE0F694E794D79480
:100DC000C794BA95D1F7B02D29813A814B815C81C6
:100DD000241935094609570980E593ECA0E0B0E0F5
:100DE000BC01CD0104C096958795779567951A95B6
:100DF000D2F70E94EC2A99235CF0660F771F881FB8
:100E0000991FA70196010E94102B69017A010AC05F
:100E1000A70196010E94102B69017A01CC0CDD1C00
:100E2000EE1CFF1C9927F7FC9A958F2D7E2D6D2DBA
:100E30009B01AC010E94EC2A9B01AC01AEEDBBE032
:100E40000E94572B4C01BB2497FCB094AB2CA3E41D
:100E5000B3EEA70196010E94652BBB2797FDB095C5
:100E6000AB2F880D991DAA1DBB1D8153914FAF4F0C
:100E7000BF4F689413F8B595A795979587951694E5
:100E8000D1F7BC01CD016C0D7D1D8E1D9F1D2696D9
:100E90000FB6F894DEBF0FBECDBFDF91CF911F918B
:100EA000FF90EF90DF90CF90BF90AF909F908F908A
:100EB0007F906F905F904F903F902F900895FC012E
:100EC000608352834183138280E290E09583848320
:100ED00008950F931F93CF938C01FC01C381C1111F
:100EE00007C061E00E949007811103C0C1E001C00A
:100EF000C0E0C1110FC0F8016081818192810E9420
:100F0000C611F801818192810E945F12811103C094
:100F1000C1E001C0C0E08C2FCF911F910F910895C7
:100F20001F93CF93DF93EC01162F89819A810E9442
:100F3000AE1181E08B83112321F0CE010E9469075D
:100F400001C081E0DF91CF911F9108959F92AF92F0
:100F5000BF92CF92DF92EF92FF920F931F93CF93A6
:100F6000DF93DA01AE0DBF1DEC01EC81FD81EA17C4
:100F7000FB0798F1922E6A015B01688189819A8151
:100F80000E94C611E114F10489F00115110571F0F8
:100F900089819A81DC01ED91FC910280F381E02D41
:100FA000A701B8010995E816F906C9F489819A8163
:100FB000DC01ED91FC910280F381E02DA601B501E9
:100FC0000995C816D90669F4692D89819A810E940C
:100FD000D311811108C081E007C080E005C080E026
:100FE00003C080E001C080E0DF91CF911F910F919D
:100FF000FF90EF90DF90CF90BF90AF909F900895BB
:10100000AF92BF92CF92DF92EF92FF920F931F9316
:10101000CF93DF936C015B017A01DC016C91119637
:101020008D919C9112970E94441290E0E816F90667
:10103000B1F4C0E0D0E0CE15DF0598F485010C0FC7
:101040001D1FF60181819281DC01ED91FC910284EA
:10105000F385E02D0995F80180832196ECCF80E09F
:1010600001C081E0DF91CF911F910F91FF90EF9030
:10107000DF90CF90BF90AF9008959F92AF92BF92B4
:10108000CF92DF92EF92FF920F931F93CF93DF9354
:101090006C015B017A01922EC0E0D0E0CE15DF0535
:1010A000F8F4C7018C1B9D0BF6010481158108170C
:1010B000190708F08C01C701801B910BC817D907CD
:1010C00010F420E001C0292DA801B5016C0F7D1F8F
:1010D000C6010E940008882321F0C00FD11FDECF77
:1010E00081E0DF91CF911F910F91FF90EF90DF9002
:1010F000CF90BF90AF909F900895AF92BF92CF9244
:10110000DF92EF92FF920F931F93CF93DF93EC0147
:10111000690158012E2DE12CF12C00E010E00E9415
:10112000A607882331F021E0A501B601CE010E9477
:101130003D08DF91CF911F910F91FF90EF90DF90CD
:10114000CF90BF90AF900895AF92CF92DF92EF9281
:10115000FF920F931F93FC01718360834283C782C8
:10116000D086E186F2860383148325833683A1101B
:1011700011C08DEC9CECACECBDE383879487A58714
:10118000B6878DEC9CECACE4BFE38787908BA18B9A
:10119000B28B10C08DEC9CECACE4BDE383879487EC
:1011A000A587B68786E696E6A6E6BFE38787908B97
:1011B000A18BB28B1F910F91FF90EF90DF90CF909A
:1011C000AF9008953F924F925F926F927F928F926D
:1011D0009F92AF92BF92CF92DF92EF92FF920F93C6
:1011E0001F93CF93DF93EC0144E06A81888199815A
:1011F0000E9454128F8B843009F0C8C000E010E0C8
:101200008F8990E00817190780F488819981DC01A3
:10121000ED91FC910284F385E02D0995FE01E00F2C
:10122000F11F838B0F5F1F4FEBCF8B89382E3694C6
:1012300036943694369436943694388E8F73E82EDE
:10124000F12CFE2CEE248C89E82AFA8EE98E0D8989
:1012500010E0000F111F000F111F000F111F8E89CA
:101260008770082B1C8F0B8F6B857C858D859E85E9
:1012700020E03CEF4FE756E40E94C4224B015C01A2
:10128000B70180E090E00E949F21A50194010E9497
:101290000E204B015C016B817C818D819E81CF8012
:1012A000D884E984FA84A70196010E940E202B01BC
:1012B0003C016F85788989899A8920E03CEF4FE766
:1012C00056E40E94C4229B01AC01C301B2010E94FA
:1012D000F7209B01AC01C501B4010E94C4229B010F
:1012E000AC01C701B6010E940F206B017C016D8F1C
:1012F0007E8F8F8F98A3B80180E090E00E949F219D
:1013000020E030E048E453E40E94C42220E030EEC4
:101310004FEF54E40E94F72020E030E048E452E42C
:101320000E940E204B015C0169A37AA38BA39CA3AE
:1013300020E030E046E153E40E94B722181644F161
:10134000311028C022E43DE348EE5EE3C701B60158
:101350000E94C4222AE038EE4CE151E40E94C422EB
:1013600029EA33E140ED5CE30E94F72029EA33E10A
:1013700040ED5CE30E94F7206DA37EA38FA398A7A6
:1013800089A69AA6ABA6BCA681E005C080E003C0F2
:1013900080E001C080E0DF91CF911F910F91FF901D
:1013A000EF90DF90CF90BF90AF909F908F907F9005
:1013B0006F905F904F903F9008950F931F93CF933E
:1013C000DF938C01C0E0D0E0CA30D1056CF4C801D5
:1013D0000E94E208811109C06AE070E080E090E0BC
:1013E0000E94A5292196F0CF80E0DF91CF911F9137
:1013F0000F91089580E090E008952091A40230912B
:10140000A50228173907F9F49091620280916302CE
:101410009817E1F0E0916202F0E0EC59FD4F808115
:101420002091620230E02F5F3F4F2F7330783323DB
:1014300034F421503109206C3F6F2F5F3F4F2093D0
:10144000620290E008958FEF9FEF08958FEF9FEF76
:1014500008952091A4023091A5022817390761F45C
:101460008091630290E0805C9F4F20916202821B1A
:1014700091098F739927089580E090E008950F9364
:101480001F93CF93DF93EC014C8D5D8D411551057A
:1014900029F481E090E09B838A833CC0A989BA89C2
:1014A0008889382F30950FB79E8D192F127091FDB6
:1014B0006095F894112321F09C91982B9C9303C084
:1014C0009C9193239C93FA013197F1F798E099232B
:1014D00089F060FF04C02C91282B2C9303C02C9121
:1014E00023232C93FA013197F1F770E075956795F6
:1014F0009150EDCF112321F08C9138233C9303C000
:101500009C91892B8C930FBF8C8D9D8D0197F1F74A
:1015100041E050E0CA01DF91CF911F910F910895F2
:1015200008952091A4023091A5022817390771F47B
:101530009091620280916302981759F0E0916202E3
:10154000F0E0EC59FD4F808190E008958FEF9FEF20
:1015500008958FEF9FEF08952091A4023091A50286
:101560002817390789F4DC015396ED91FC915497C3
:10157000208155968C918095822380831092A502BC
:101580001092A40281E0089580E00895CF93DF9344
:10159000EC018A8D9B8D892BF1F08091A4029091B2
:1015A000A502C817D907C9F0009711F00E94AC0A2C
:1015B0008E8D8E7F8E8F1092630210926202D09376
:1015C000A502C093A402EB89FC8990818D89892BA7
:1015D000808381E003C080E001C080E0DF91CF9193
:1015E0000895FC01A685B7859C918585892308957A
:1015F0001F920F920FB60F921124EF92FF920F934A
:101600001F932F933F934F935F936F937F938F938A
:101610009F93AF93BF93CF93DF93EF93FF9300918B
:10162000A4021091A5020115110509F474C0D80196
:101630005E968C9181FF08C0C8010E94F10A91E07A
:10164000811108C090E006C0C8010E94F10A91E033
:10165000811190E0992309F45EC0D8015396ED9171
:10166000FC915497908155968C915597809589233C
:10167000808356968D919C9157970197F1F76894C6
:10168000FF24F3F8E12CFF20A1F0F801808D918D6B
:101690000197F1F7CE2DD0E0D595C795EC2EC80176
:1016A0000E94F10A882319F0FC2FF068EF2EFA94BB
:1016B000EACFD8015E968C9181FDE094809163021F
:1016C00090E001968F739078992324F40197806CB1
:1016D0009F6F019620916202281749F0E091630202
:1016E000F0E0EC59FD4FE0828093630204C0F80102
:1016F000868D8160868FD8015A968D919C915B97DB
:101700000197F1F75396ED91FC915497908155967E
:101710008C91892B8083FF91EF91DF91CF91BF91C5
:10172000AF919F918F917F916F915F914F913F9179
:101730002F911F910F91FF90EF900F900FBE0F9080
:101740001F9018951F93CF93DF93EC01162F6E8D8A
:10175000669581E068276170812F0E94932A61E07D
:10176000812F0E94572A812F90E0FC01EB5BFC4FF8
:10177000E491E88BFC01E75AFC4FE491F0E0EE0FB6
:10178000FF1FE958FC4F859194919A8B898BDF91CB
:10179000CF911F9108951F93CF93DF93EC01162FE4
:1017A00060E0812F0E94572A8E8D81FD04C061E088
:1017B000812F0E94932A1C87612F70E0FB01EB5B55
:1017C000FC4FE491ED87FB01E75AFC4FE491F0E018
:1017D000EE0FFF1FE359FC4F859194919F878E87F1
:1017E000DF91CF911F9108951F93CF93DF93EC0169
:1017F000162F1B821A8288EE93E0A0E0B0E08C8363
:101800009D83AE83BF8389E291E0998388831F8A99
:101810001E8A198E188E1B8E1A8E1D8E1C8E8E8D12
:101820008E7F20FB81F98E8F642FCE010E94A20B48
:10183000612FCE010E94CB0BDF91CF911F910895B4
:101840006817790718F4861B970B089581E090E0DC
:101850000895CF92DF92EF92FF921F93CF93DF9381
:10186000EC019A01AB011D8E1C8E1B8E1A8E198EF7
:10187000188E1F8A1E8A60E47BE48CE490E00E944C
:10188000102B69017A0163E070E0C9010E94200C0D
:101890009D8F8C8F1C85163108F072C0C6019695FD
:1018A000879563E170E00E94200C9F8B8E8B65E032
:1018B00070E0C6010E94200C998F888FC601880FA6
:1018C000991F8C0D9D1D6CE070E0969587959695FF
:1018D00087950E94200C9B8F8A8F163118F4E8E6BA
:1018E000F0E002C0E0E0F0E0163118F4A8E6B0E065
:1018F00002C0A0E0B0E09C91183050F021E01E3012
:1019000008F420E081E001C0880F2A95EAF701C0C1
:1019100084E0892B80838C85883038F08E3040F0CD
:10192000863148F42CE630E008C02DE630E005C0F2
:101930002BE630E002C020E030E03C8B2B8B88307F
:1019400038F491E001C0990F8A95EAF7892F13C006
:101950008E3048F490E0089791E001C0990F8A9585
:10196000EAF7892F08C090E00E9791E001C0990F27
:101970008A95EAF7892F8D8B8C8D9D8D0197F1F7D4
:10198000CE010E94C60ADF91CF911F91FF90EF9088
:10199000DF90CF9008950E94AC0A089529E231E0CB
:1019A000FC01318320830E94CB0C0895109219030F
:1019B00081E0809317031092160361E082E10E9498
:1019C000932A61E083E10E94932AE9EBF0E08081B1
:1019D0008E7F808380818D7F80838CE58093B800AB
:1019E00085E48093BC000895ECEBF0E080818A7B75
:1019F000808360E082E10E94932A60E083E10E949C
:101A0000932A08959B01AC0160E07DE281E391E0BF
:101A10000E94102BDA01C9014097A109B109B695BE
:101A2000A795979587958093B8000895AC019091FC
:101A3000C802262F30E0290F311D21323105F4F480
:101A4000809119038430E1F490E00FC08091C802C6
:101A5000292F30E0F901E80FF11DDA01A20FB31FC1
:101A60008C91E653FD4F80839F5F961778F38091AA
:101A7000C802680F6093C80280E0089581E008956D
:101A800082E0089590930D0380930C030895909342
:101A90000F0380930E030895882321F085EC809333
:101AA000BC00089585E88093BC00089585EC809380
:101AB000BC00109219030895EF92FF920F931F93A9
:101AC000CF93DF9391E090931103882371F0C8EBDB
:101AD000D0E0F8800AEB10E0F801E0800E94F40CFE
:101AE0000E94D60CF801E082F882DF91CF911F911D
:101AF0000F91FF90EF9008954F925F926F927F92B7
:101B00008F929F92AF92BF92CF92DF92EF92FF920D
:101B10000F931F93CF93DF93F82E8B01D42FE22ED8
:101B2000413208F0CDC00E9482294B015C0127C0E0
:101B30008091120390911303A0911403B0911503A7
:101B4000892B8A2B8B2BD9F00E948229DC01CB01B7
:101B500088199909AA09BB094090120350901303F0
:101B60006090140370901503481659066A067B06A8
:101B700030F4809110030E945C0DC0E0A2C0C091BF
:101B80001903C111D5CF81E080931903E0921703A7
:101B90009FEF9093A6021092EB029D0F9093EA02A2
:101BA000809318038F2D90E0880F991F9091180350
:101BB000892B80931803809116038130C1F5109210
:101BC00016030E9482296B017C0180911803809387
:101BD000BB008091120390911303A0911403B09164
:101BE0001503892B8A2B8B2BD1F00E948229DC01D3
:101BF000CB018C199D09AE09BF098090120390900A
:101C00001303A0901403B090150388169906AA0632
:101C1000BB0628F4809110030E945C0D52C0809195
:101C2000BC0083FDD2CF85EC8093BC0003C085EE61
:101C30008093BC000E9482296B017C0126C08091A8
:101C4000120390911303A0911403B0911503892BF3
:101C50008A2B8B2BD1F00E948229DC01CB018C19BD
:101C60009D09AE09BF098090120390901303A090C4
:101C70001403B090150388169906AA06BB0628F42B
:101C8000809110030E945C0D1CC08091190381306B
:101C9000B1F28091EB028D1710F4D091EB0220E0AD
:101CA0000BC0822F90E0F801E80FF91FDC01A4516E
:101CB000BD4F8C9180832F5F2D1798F3CD2F01C0DE
:101CC000C0E08C2FDF91CF911F910F91FF90EF908B
:101CD000DF90CF90BF90AF909F908F907F906F904C
:101CE0005F904F9008954F925F926F927F928F9284
:101CF0009F92AF92BF92DF92EF92FF920F931F934A
:101D0000CF93DF93413208F0D9C0122FD42F7B013B
:101D1000D82E0E9482294B015C0127C080911203BA
:101D200090911303A0911403B0911503892B8A2B72
:101D30008B2BD9F00E948229DC01CB0188199909EB
:101D4000AA09BB094090120350901303609014033A
:101D500070901503481659066A067B0630F4809188
:101D600010030E945C0DC5E0AEC0C0911903C11103
:101D7000D5CF82E080931903009317038FEF8093F0
:101D8000A6021092EB02D093EA0290E00AC0E92F7B
:101D9000F0E0D701AE0FBF1F3C91E451FD4F3083FF
:101DA0009F5F9D17A0F3109218038D2D90E0880F70
:101DB000991FD09018038D298093180380911603E2
:101DC0008130C9F5109216030E9482294B015C01F3
:101DD000809118038093BB008091120390911303AC
:101DE000A0911403B0911503892B8A2B8B2BD9F06A
:101DF0000E948229DC01CB0188199909AA09BB0933
:101E000040901203509013036090140370901503D8
:101E1000481659066A067B0630F4809110030E942A
:101E20005C0DC5E050C08091BC0083FDD1CF85EC36
:101E30008093BC0003C085EE8093BC000E94822981
:101E40004B015C0127C08091120390911303A09174
:101E50001403B0911503892B8A2B8B2BD9F00E9488
:101E60008229DC01CB0188199909AA09BB09409094
:101E700012035090130360901403709015034816DA
:101E800059066A067B0630F4809110030E945C0DAF
:101E9000C5E019C0112321F080911903823099F215
:101EA0008091A6028F3F79F08091A602803241F0A6
:101EB0008091A602803331F4C3E005C0C1E003C0C5
:101EC000C2E001C0C4E08C2FDF91CF911F910F9130
:101ED000FF90EF90DF90BF90AF909F908F907F909A
:101EE0006F905F904F90089585ED8093BC00409176
:101EF0001203509113036091140370911503495F0D
:101F00005F4F6F4F7F4F689412F87695679557959E
:101F100047951694D1F71FC0809112039091130337
:101F2000A0911403B0911503892B8A2B8B2B99F068
:101F3000411551056105710549F085E38A95F1F771
:101F40000000415051096109710905C080911003D9
:101F50000E945C0D08958091BC0084FDDDCF10923D
:101F6000190308951F920F920FB60F9211242F9309
:101F70003F934F935F936F937F938F939F93AF9311
:101F8000BF93EF93FF938091B900E82FE87F8E2FE6
:101F900090E0893C910508F0F5C0FC01EC5CFF4F36
:101FA0000C94512B809118038093BB0081E00E9418
:101FB0004C0DE8C09091EB028091EA02981780F4F2
:101FC000E091EB0281E08E0F8093EB02F0E0E451B0
:101FD000FD4F80818093BB0081E00E944C0DD2C0F8
:101FE00080911703882319F00E94740FCBC081E001
:101FF0008093160384EA8093BC0010921903C2C038
:1020000080E28093A6020E94740FBCC080E380939C
:10201000A6020E94740FB6C088E38093A6020E94B5
:10202000560DB0C0E091EB0281E08E0F8093EB0281
:10203000F0E08091BB00E451FD4F80839091EB0272
:102040008091EA02981720F481E00E944C0D9AC01A
:1020500080E00E944C0D96C0E091EB0281E08E0F73
:102060008093EB02F0E08091BB00E451FD4F808350
:1020700080911703882319F00E94740F83C081E0B8
:102080008093160384EA8093BC00109219037AC0EF
:102090000E94740F77C083E0809319031092A70207
:1020A00081E00E944C0D6EC08091A702803280F4C6
:1020B000E091A70281E08E0F8093A702F0E080916B
:1020C000BB00E855FD4F808381E00E944C0D5AC053
:1020D00080E00E944C0D56C00E94560D8091A702D0
:1020E000803230F4E091A702F0E0E855FD4F108215
:1020F0006091A70270E0E0910C03F0910D0388EA73
:1021000092E009951092A7023DC080E00E944C0D1C
:1021100039C084E0809319031092C9021092C8025A
:10212000E0910E03F0910F0309958091C80281118F
:1021300005C081E08093C8021092CA02E091C902F2
:1021400081E08E0F8093C902F0E0E653FD4F80815D
:102150008093BB009091C9028091C802981720F427
:1021600081E00E944C0D0EC080E00E944C0D0AC020
:1021700081E00E944C0D1092190304C01092A60237
:102180000E94740FFF91EF91BF91AF919F918F913A
:102190007F916F915F914F913F912F910F900FBE63
:1021A0000F901F90189580914E0390E020914F035F
:1021B000821B9109089590914F0380914E039817C7
:1021C00050F4E92FF0E0E05BFC4F208130E09F5FAE
:1021D00090934F0302C02FEF3FEFC9010895E091A4
:1021E0004F0380914E03E81730F4F0E0E05BFC4FC2
:1021F000808190E008958FEF9FEF08950895CF9329
:10220000DF93EC01E0912603F09127033097E1F092
:1022100090914F0380914E039817B0F090E0292FD2
:1022200030E02617370754F4DE01A90FB11D4C9199
:10223000D901A05BBC4F4C939F5FF1CFCB011092B3
:102240004F0360934E030995DF91CF910895E0917C
:102250002803F0912903309729F010922C03109253
:102260002B0309950895CF92DF92EF92FF920F937F
:102270001F93CF93DF938C016B017A0180912A0326
:10228000882399F0C0E0D0E0CE15DF0590F4D801A6
:10229000ED91FC910190F081E02DD601AC0FBD1FB6
:1022A0006C91C80109952196EFCF642FC6010E9459
:1022B000160DC701DF91CF911F910F91FF90EF9005
:1022C000DF90CF900895CF93DF931F92CDB7DEB705
:1022D000FC01698390912A039923D9F090912B03F3
:1022E000903238F081E090E09383828380E090E048
:1022F00017C080912C03E82FF0E0E35DFC4F99813B
:1023000090838F5F80932C0380932B0381E090E078
:1023100007C061E0CE0101960E94160D81E090E0B9
:102320000F90DF91CF910895FC011382128288EE05
:1023300093E0A0E0B0E084839583A683B7838BE32A
:1023400091E0918380830895019739F46F3F7F4F27
:1023500021F48AE193E00E949411089510924F03B2
:1023600010924E0310922C0310922B030E94D60C55
:1023700087E291E10E94470D8FEF90E10E94420DAC
:102380000895CB01BA010E94020D089581E0809367
:102390002A0360934D0310922C0310922B0308958F
:1023A0000E94C61108950F9340912B03062F21E040
:1023B0006DE273E080914D030E94730E10922C0326
:1023C00010922B0310922A030F9108958F929F92DF
:1023D000AF92BF92CF92DF92EF92FF920F931F9333
:1023E000CF93DF93EC01D62EF42E48015901EE2055
:1023F00069F10E94C61123E02E1520F40F2EF3E0A0
:10240000EF2EF02D1FEF1E0DEE20E1F0E881F98197
:102410000190F081E02D812F90E0880F991F880FA7
:10242000991F880F991FA501940104C056954795DF
:10243000379527958A95D2F7CA01B901CE0109953A
:10244000E12EE0CF60E0CE010E94D31130E23F15D3
:1024500018F46894FF24F5F82C2D4F2D60E573E0F7
:102460008D2D0E947C0D10924F0380934E03DF91BF
:10247000CF911F910F91FF90EF90DF90CF90BF9081
:10248000AF909F908F900895CF92EF920F931F93EC
:10249000C22EE12C00E010E098010E94E6111F918D
:1024A0000F91EF90CF90089521E00E94441208957B
:1024B00021E00E94441208950E944412089561E0B0
:1024C0000E94D31108956FEF7FEF81E090E00E94AA
:1024D000A41108950F931F93CF93DF93EC018B0109
:1024E0000197A9F46F3F7F4F91F421E044E065E04C
:1024F0008BE994E00E94F40B87EF93E00E945E0466
:102500002AE049E068E080E793E00E942503CD2BB4
:1025100039F40F3F1F4F21F48BE994E00E94CE0C59
:10252000DF91CF911F910F910895CF93DF9362E2D6
:1025300072E089E494E00E94D02CEC01209709F429
:102540004CC062E571E0CE010E94E72C892B79F046
:102550006DE370E0CE010E94D52C01960E94B22C52
:1025600021E0892B09F420E0209344042EC068E583
:1025700071E0CE010E94E72C892B89F06DE370E0B9
:10258000CE010E94D52C01960E94AE2C60930601CC
:1025900070930701809308019093090116C069E4C4
:1025A00071E0CE010E94E72C892B79F081E08093C5
:1025B00045046DE370E0CE010E94D52CBC016F5F35
:1025C0007F4F8AE091E00E94E02C62E272E080E0BE
:1025D00090E00E94D02CEC01B1CFDF91CF91089513
:1025E000CF93DF9363E28AEB94E00E945B276DE474
:1025F00071E08AEB94E00E943C276091890470911D
:102600008A044AE050E08AEB94E00E94D02760E41C
:102610008AEB94E00E943E27C0E7D3E069857A8583
:102620004AE050E08AEB94E00E942A286DE28AEBAF
:1026300094E00E943E2788858A3028F460E38AEB84
:1026400094E00E943E27C0E7D3E068854AE050E06E
:102650008AEB94E00E94C3276DE28AEB94E00E942B
:102660003E278F818A3028F460E38AEB94E00E9451
:102670003E27C0E7D3E06F814AE050E08AEB94E068
:102680000E94C32764E58AEB94E00E943E278D8177
:102690008A3028F460E38AEB94E00E943E27C0E78A
:1026A000D3E06D814AE050E08AEB94E00E94C327BA
:1026B0006AE38AEB94E00E943E278C818A3028F4FA
:1026C00060E38AEB94E00E943E27C0E7D3E06C8190
:1026D0004AE050E08AEB94E00E94C3276AE38AEB69
:1026E00094E00E943E278B818A3028F460E38AEBD5
:1026F00094E00E943E27609173034AE050E08AEB29
:1027000094E00E94C3276AE58AEB94E00E945B276D
:1027100061E571E08AEB94E00E943C2760914404FB
:1027200070E04AE050E08AEB94E00E94312867E5CF
:1027300071E08AEB94E00E943C27409106015091A1
:102740000701609108017091090122E030E08AEBF5
:1027500094E00E941E296DE571E08AEB94E00E94EE
:102760003C276091430470E04AE050E08AEB94E03B
:102770000E94312863E671E08AEB94E00E943C27D6
:102780006091420470E04AE050E08AEB94E00E94DD
:10279000312869E671E08AEB94E00E943C27609161
:1027A000410470E04AE050E08AEB94E00E94312856
:1027B0006FE671E08AEB94E00E943C2740913D0473
:1027C00050913E0460913F047091400422E030E05B
:1027D0008AEB94E00E941E2965E771E08AEB94E0A1
:1027E0000E943C2740913504509136046091370493
:1027F0007091380422E030E08AEB94E00E941E29B8
:102800006BE771E08AEB94E00E943C27609133040F
:1028100070E04AE050E08AEB94E00E94312861E8E1
:1028200071E08AEB94E00E943C2740912F04509184
:102830003004609131047091320423E030E08AEB7F
:1028400094E00E941E2966E871E08AEB94E00E9401
:102850003C2740912B0450912C0460912D047091E1
:102860002E0423E030E08AEB94E00E941E296BE8FE
:1028700071E08AEB94E00E943C274091270450913C
:1028800028046091290470912A0423E030E08AEB47
:1028900094E00E941E2960E971E08AEB94E00E94B6
:1028A0003C274091230450912404609125047091A9
:1028B000260423E030E08AEB94E00E941E2965E9BB
:1028C00071E08AEB94E00E943C2740911F045091F4
:1028D0002004609121047091220423E030E08AEB0F
:1028E00094E00E941E296AE971E08AEB94E00E945C
:1028F0003C2740911B0450911C0460911D04709171
:102900001E0423E030E08AEB94E00E941E296FE968
:1029100071E08AEB94E00E943C276091190470E01A
:102920004AE050E08AEB94E00E94312865EA71E0C9
:102930008AEB94E00E943C276091100470E04AE02A
:1029400050E08AEB94E00E9431286BEA71E08AEB58
:1029500094E00E943C274091F3035091F40360916E
:10296000F5037091F60321E030E08AEB94E00E94D9
:102970001E2961EB71E08AEB94E00E943C27609194
:10298000F10370E04AE050E08AEB94E00E943128C5
:1029900067EB71E08AEB94E00E943C274091C00312
:1029A0005091C1036091C2037091C30322E030E0F3
:1029B0008AEB94E00E941E296DEB71E08AEB94E0B3
:1029C0000E943C274091BC035091BD036091BE031F
:1029D0007091BF0322E030E08AEB94E00E941E2950
:1029E00063EC71E08AEB94E00E943C274091B803CD
:1029F0005091B9036091BA037091BB0322E030E0BB
:102A00008AEB94E00E941E2969EC71E08AEB94E065
:102A10000E943C274091B4035091B5036091B603E6
:102A20007091B70322E030E08AEB94E00E941E2907
:102A30006FEC71E08AEB94E00E943C274091B00378
:102A40005091B1036091B2037091B30323E030E081
:102A50008AEB94E00E941E2965ED71E08AEB94E018
:102A60000E943C274091AC035091AD036091AE03AE
:102A70007091AF0322E030E08AEB94E00E941E29BF
:102A80006BED71E08AEB94E00E943C274091A80333
:102A90005091A9036091AA037091AB0322E030E04A
:102AA0008AEB94E00E941E2961EE71E08AEB94E0CB
:102AB0000E943C2740919C0350919D0360919E038E
:102AC00070919F0322E030E08AEB94E00E941E297F
:102AD00067EE71E08AEB94E00E943C2740918B0303
:102AE00050918C0360918D0370918E0322E030E051
:102AF0008AEB94E00E941E296DEE71E08AEB94E06F
:102B00000E943C274091970350919803609199034C
:102B100070919A0322E030E08AEB94E00E941E2933
:102B200063EF71E08AEB94E00E943C2740918703B9
:102B3000509188036091890370918A0322E030E00C
:102B40008AEB94E00E941E2969EF71E08AEB94E021
:102B50000E943C2740917B0350917C0360917D0350
:102B600070917E0322E030E08AEB94E00E941E29FF
:102B70006FEF71E08AEB94E00E943C274091830361
:102B800050918403609185037091860322E030E0C8
:102B90008AEB94E00E941E2965E072E08AEB94E0E3
:102BA0000E943C2740917F035091800360918103F4
:102BB0007091820324E030E08AEB94E00E941E29A9
:102BC0006BE072E08AEB94E00E943C274091A40302
:102BD0005091A5036091A6037091A70322E030E015
:102BE0008AEB94E00E941E296BE28AEB94E00E943B
:102BF0005B27DF91CF9108956FEF7FEF81E090E049
:102C00000E946A1208956FEF7FEF80E090E00E94CB
:102C10006A120895CF93C82F60E770E08AE193E0CD
:102C20000E94D0116C2F8AE193E00E9463118AE127
:102C300093E00E945F1285E090E00E94E129CF912D
:102C4000089568E670E08AE193E00E94D0116AE19D
:102C50008AE193E00E94631166E08AE193E00E94BA
:102C6000631161E08AE193E00E94D31168E670E0AD
:102C70008AE193E00E94D01169E18AE193E00E9429
:102C8000631163E08AE193E00E94631161E08AE1ED
:102C900093E00E94D31168E670E08AE193E00E941D
:102CA000D0116CE18AE193E00E94631160E18AE156
:102CB00093E00E94631161E08AE193E00E94D311E6
:102CC00068E670E08AE193E00E94D0116BE18AE14E
:102CD00093E00E94631168E08AE193E00E9463112F
:102CE00061E08AE193E00E94D31168E670E08AE136
:102CF00093E00E94D0116BE68AE193E00E94631199
:102D000068E08AE193E00E94631161E08AE193E068
:102D10000E94D3110895809133048093340468E6AF
:102D200070E08AE193E00E94D0118AE193E00E9472
:102D30005F12811104C081E08093330402C01092BD
:102D400033049091340480913304981730F48AE06E
:102D500090E00E94E1290E94211608956DE070E044
:102D60008AE193E00E94D0116BE08AE193E00E9437
:102D7000631161E08AE193E00E9463118AE193E0CC
:102D80000E945F126DE070E08AE193E00E94D01132
:102D900069E08AE193E00E9463116DE18AE193E0CA
:102DA0000E9463118AE193E00E945F120895AF923E
:102DB000CF92DF92EF92FF920F931F939FE088E1F3
:102DC0000FB6F894A895809360000FBE90936000B2
:102DD0008AB18C608AB98BB18C608BB98AB18068FA
:102DE0008AB98AB180648AB98BB180648BB987B1A2
:102DF0008D7F87B988B1826088B987B18B7F87B9A9
:102E000088B1846088B987B1877F87B988B18860C5
:102E100088B926E040E052EC61E070E08AEB94E093
:102E20000E94FA2540E855E260E070E08BE994E00A
:102E30000E94290C8AE193E00E94AE1140E85AE119
:102E400066E070E08AE193E00E94C11180E4809323
:102E50007C0087E880937A0082E00E940A160E9434
:102E600021168AE090E00E94E12984E00E940A167F
:102E70000E94AE168AE090E00E94E12980E20E9462
:102E80000A164AE153E063E087EF93E00E94F904F9
:102E90008AE090E00E94E12980E40E940A16A12CB9
:102EA0000F2EC12CD12CF0E8EF2EFFEBFF2EF02DD2
:102EB00000E010E020E83FE348E26AE173E084ECE0
:102EC00093E00E94A40884EC93E00E94DD0961E194
:102ED00072E08AEB94E00E944927A895109294042E
:102EE000109293048091930490919404069798F41F
:102EF0008BB180588BB962E370E080E090E00E9473
:102F0000A529809193049091940401969093940440
:102F100080939304E7CF64E670E080E090E00E9445
:102F2000A5291F910F91FF90EF90DF90CF90AF9068
:102F300008958091190480931A046DE070E08AE18D
:102F400093E00E94D0118AE193E00E945F12811108
:102F500004C081E08093190402C01092190490917A
:102F60001A0480911904981730F48AE090E00E94C6
:102F7000E1290E94AE160895CF93DF9368E670E0D2
:102F80008AE193E00E94D0116BE38AE193E00E9412
:102F9000631160E08AE193E00E94D31121E030E008
:102FA00046E050E068E670E08AE193E00E945C123F
:102FB0008AE193E00E94DB10D82F80E0C82F8AE1DD
:102FC00093E00E94DB108C2B9D2BBC01990F880B8A
:102FD000990B0E94A12120E030E040E859E30E94D3
:102FE000C4222AE037ED43E25DE30E940E206093A5
:102FF0002F047093300480933104909332048AE15B
:1030000093E00E94DB10D82F80E0C82F8AE193E084
:103010000E94DB108C2B9D2BBC01990F880B990B08
:103020000E94A12120E030E040E859E30E94C42240
:1030300020E030E0A9010E940F20609327047093E4
:1030400028048093290490932A048AE193E00E9443
:10305000DB10D82F80E0C82F8AE193E00E94DB10BC
:103060008C2B9D2BBC01990F880B990B0E94A121E1
:1030700020E030E040E859E30E94C4222CEE31E524
:1030800048E35DE30E940E2060932B0470932C04B0
:1030900080932D0490932E0468E670E08AE193E01B
:1030A0000E94D01163E48AE193E00E94631160E022
:1030B0008AE193E00E94D31121E030E046E050E045
:1030C00068E670E08AE193E00E945C128AE193E096
:1030D0000E94DB10D82F80E0C82F8AE193E00E9485
:1030E000DB108C2B9D2BBC01990F880B990B0E9438
:1030F000A12120E030E043E852E40E94F72020E0E4
:1031000030E040EA50E40E940F2060932304709363
:10311000240480932504909326048AE193E00E947E
:10312000DB10D82F80E0C82F8AE193E00E94DB10EB
:103130008C2B9D2BBC01990F880B990B0E94A12110
:1031400020E030E043E852E40E94F7202AE939E920
:1031500049E15FE30E940F2060931B0470931C04FD
:1031600080931D0490931E048AE193E00E94DB107B
:10317000D82F80E0C82F8AE193E00E94DB108C2BCF
:103180009D2BBC01990F880B990B0E94A12120E077
:1031900030E043E852E40E94F72020E030E040E0D5
:1031A00050E40E940E2060931F04709320048093CB
:1031B00021049093220480912F0490913004A091D7
:1031C0003104B0913204B05880932F0490933004AE
:1031D000A0933104B093320480912304909124048D
:1031E000A0912504B0912604B058809323049093B5
:1031F0002404A0932504B0932604DF91CF91089571
:10320000CF93DF936DE070E08AE193E00E94D011EC
:1032100066E08AE193E00E9463118AE193E00E94F4
:103220005F1241E050E06DE070E08AE193E00E94BF
:1032300058128AE193E00E94D310892B39F08AE179
:1032400093E00E94DB1080931804F3CF8091180460
:10325000882309F487C06DE070E08AE193E00E9462
:10326000D01160E08AE193E00E9463118AE193E06B
:103270000E945F1246E050E06DE070E08AE193E06A
:103280000E9458128AE193E00E94D31006970CF432
:103290005DC08AE193E00E94DB10EC018AE193E0DB
:1032A0000E94DB1060E070E0782F6C2B7D2B072EE6
:1032B000000C880B990B0E94A12120E030E0A901AD
:1032C0000E940F200E9469217093170460931604D6
:1032D0008AE193E00E94DB10EC018AE193E00E9416
:1032E000DB1060E070E0782F6C2B7D2B072E000C3C
:1032F000880B990B0E94A12120E030E0A9010E94D7
:103300000F200E94692170931304609312048AE1D4
:1033100093E00E94DB10EC018AE193E00E94DB1055
:1033200060E070E0782F6C2B7D2B072E000C880B53
:10333000990B0E94A12120E030E0A9010E940F20FA
:103340000E946921709315046093140480911604FF
:10335000909117049195819591099093170480930A
:10336000160424C062E070E080E090E00E94A5298D
:1033700041E050E06DE070E08AE193E00E94581275
:103380008AE193E00E94D310892B39F08AE193E01F
:103390000E94DB1080931804F3CF809118048111F0
:1033A00003C01092190402C00E940019DF91CF914E
:1033B00008958AEB94E00E941E25892B91F18AEBF7
:1033C00094E00E943825833239F410924804109218
:1033D00047041092460425C08B3269F4E0914704FB
:1033E000F0914804E75BFB4F10820E94951281E048
:1033F0008093460416C02091470430914804F90197
:10340000E75BFB4F8083C90101968F739078992306
:1034100024F40197806C9F6F0196909348048093E9
:10342000470480914604882331F01092480410929A
:1034300047041092460408954F925F926F927F92D4
:103440008F929F92AF92BF92CF92DF92EF92FF92B4
:103450000F931F93CF93DF93CDB7DEB764970FB66B
:10346000F894DEBF0FBECDBF9FE088E10FB6F894A1
:10347000A895809360000FBE909360000E9476290B
:1034800060938F04709390048093910490939204BE
:1034900080E40E940A168091F1038093F20384EC89
:1034A00093E00E94DD09882321F081E08093F103FD
:1034B00002C01092F10390911104809110049817AA
:1034C00040F48AE090E00E94E12984EC93E00E94BD
:1034D000DD098AE090E00E94E12984EC93E00E94FB
:1034E000E2086091E9037091EA038091EB03909107
:1034F000EC0320E030E040EA51E40E940E206093AB
:10350000C0037093C1038093C2039093C3038AE006
:1035100090E00E94E12980E20E940A168091100446
:10352000809311044AE153E063E087EF93E00E9447
:10353000F904882321F081E08093100402C01092E6
:1035400010049091110480911004981758F48AE0A7
:1035500090E00E94E1294AE153E063E087EF93E0C5
:103560000E94F9048AE090E00E94E12987EF93E04D
:103570000E9405060E94A1216093F3037093F40357
:103580008093F5039093F6038AE090E00E94E1298E
:1035900096B1969581E0982791709093430496B1E7
:1035A00096959695982791709093420496B196952A
:1035B000969596958927817080934104ECE7F0E019
:1035C0008081807F8083EAE7F0E08081806480836F
:1035D00080917A0086FDFCCF60917800709179002F
:1035E00080E090E00E949F2128EC31E247E85EE312
:1035F0000E94C42220E030E047E053E40E940E2005
:1036000060933D0470933E0480933F049093400484
:10361000ECE7F0E08081807F80838081866080831A
:10362000EAE7F0E080818064808380917A0086FD03
:10363000FCCF809178009091790090933C04809326
:103640003B04ECE7F0E08081807F808380818760AD
:103650008083EAE7F0E080818064808380917A0053
:1036600086FDFCCF609178007091790070933A04E8
:103670006093390480913B0490913C04681B790B62
:1036800080E090E00E949F2120E030E04AEF5EE37E
:103690000E94C422609335047093360480933704EB
:1036A0009093380484E00E940A160E9499178AE0D9
:1036B00090E00E94E1290E9400198AE090E00E94B7
:1036C000E12982E00E940A160E948B168AE090E0AF
:1036D0000E94E1290E94BC17C0902B04D0902C04BA
:1036E000E0902D04F0902E04809027049090280400
:1036F000A0902904B0902A04A7019601C501B40145
:103700000E948E2021EE3EE245E652E40E94C42251
:103710002B013C016093BC037093BD038093BE03F7
:103720009093BF0360912F04709130048091310415
:1037300090913204A70196010E948E2021EE3EE274
:1037400045E652E40E94C4226093B8037093B90323
:103750008093BA039093BB03C0901F04D0902004C1
:10376000E0902104F0902204F7FAF094F7F8F09436
:1037700021EE3EE245E652E40E94F72069877A870F
:103780008B879C870E94F22069837A838B839C833A
:103790009B01AC01C701B6010E94F7206093B403FE
:1037A0007093B5038093B6039093B70321EE3EE286
:1037B00045E652E4C301B2010E94F7206B017C018F
:1037C0000E94D3239B01AC0169817A818B819C810A
:1037D0000E94C4220E94BE200E9481239B01AC0152
:1037E000C501B4010E940E206093B0037093B10331
:1037F0008093B2039093B3039B01AC010E94F82322
:10380000882341F01092B0031092B1031092B203DA
:103810001092B3036091120470911304072E000CF0
:10382000880B990B0E94A1216D837E838F839887DB
:103830006091160470911704072E000C880B990BE9
:103840000E94A1212B013C012D813E814F81588591
:103850000E948E2021EE3EE245E652E40E94C42200
:103860004B015C016093AC037093AD038093AE0396
:103870009093AF0320E030E0A9010E94ED2088235F
:1038800084F420E030E044EB53E4C501B4010E942D
:103890000F206093AC037093AD038093AE039093BD
:1038A000AF03C701B6010E94F2209B01AC01C30126
:1038B000B2010E94C4224B015C016091140470911A
:1038C0001504072E000C880B990B0E94A1216D870F
:1038D0007E878F87988BC701B6010E9481232B01B9
:1038E0003C019B01AC016D857E858F8598890E9486
:1038F000C422698B7A8B8B8B9C8B69857A858B85AF
:103900009C850E9481236B017C019B01AC0169892C
:103910007A898B899C890E94C4229B01AC01C501D4
:10392000B4010E940F204B015C01A30192016D8143
:103930007E818F8198850E94C4229B01AC016981A0
:103940007A818B819C810E94C4222B013C01A701BA
:1039500096016D817E818F8198850E94C4226B01C2
:103960007C012D853E854F85588969817A818B81BF
:103970009C810E94C42269837A838B839C83A301E8
:103980009201C501B4010E940F204B015C01298105
:103990003A814B815C81C701B6010E940E20A501CE
:1039A00094010E948E2021EE3EE245E652E40E9400
:1039B000C4226B017C016093A8037093A9038093D8
:1039C000AA039093AB0320E030E0A9010E94ED2010
:1039D000882384F420E030E044EB53E4C701B601CF
:1039E0000E940F206093A8037093A9038093AA03F9
:1039F0009093AB03C0909C03D0909D03E0909E03F6
:103A0000F0909F03C092A003D092A103E092A20382
:103A1000F092A30320E836EE45EC57E46091F303FF
:103A20007091F4038091F5039091F6030E94F720C2
:103A300024E534ED42E45EE30E94312320E030E0EF
:103A400040E85FE30E940E2024EC3AE24DE257EC9E
:103A50000E94C42228E439EF41E550E40E94C422C8
:103A600060939C0370939D0380939E0390939F03A8
:103A700020919B032F5F298320939B03A70196012D
:103A80000E940E2060939303709394038093950398
:103A900090939603E981E530D1F520E030E64AE6DF
:103AA00057E40E94C4226B017C010E947629009198
:103AB0008F03109190032091910330919203601B2A
:103AC000710B820B930B0E949F219B01AC01C701DC
:103AD000B6010E94F7206093970370939803809338
:103AE000990390939A030E94762960938F037093B1
:103AF0009003809391039093920310929B031092F2
:103B00009303109294031092950310929603809160
:103B10004404882389F080919C0390919D03A09197
:103B20009E03B0919F0380938B0390938C03A0938B
:103B30008D03B0938E0356C020910601309107018A
:103B400040910801509109016091F3037091F403D1
:103B50008091F5039091F6030E94F72024E534ED5F
:103B600042E45EE30E94312320E030E040E85FE37E
:103B70000E940E2024EC3AE24DE257EC0E94C4224F
:103B800028E439EF41E550E40E94C42260938B039E
:103B900070938C0380938D0390938E036B017C0153
:103BA000E894F7F82FEF3FEF4FE75FE7C701B60163
:103BB0000E94F823811116C02FEF3FEF4FE75FE718
:103BC000C701B6010E94ED20181664F480E090E56C
:103BD000A3ECB7E480938B0390938C03A0938D03A5
:103BE000B0938E03C090F303D090F403E090F503FC
:103BF000F090F60328EF33E543E350E4C701B60144
:103C00000E94C42229ED31E84BEF5EE30E94F720C9
:103C10002B013C018090C0039090C103A090C2038F
:103C2000B090C303A5019401C701B6010E940F2003
:103C3000A70196010E94F72028EF3BE842E95EE3E6
:103C40000E94312320E030E040E85FE30E940E2034
:103C500069837A838B839C8329813A814B815C8140
:103C6000C301B2010E94C4220E948F232CEE3FECBC
:103C700048EF5FE30E94C422609387037093880338
:103C80008093890390938A039B01AC010E94F823DF
:103C9000882341F0109287031092880310928903C1
:103CA00010928A038091870390918803A0918903E1
:103CB000B0918A0380937B0390937C03A0937D0350
:103CC000B0937E03A5019401C501B4010E940F20A9
:103CD0002DEC3CEC4CE95FE30E94C4222B013C013B
:103CE00023E333E948E853E46091A4037091A5030A
:103CF0008091A6039091A7030E940F2024EC36E840
:103D00004FE853E40E94C4229B01AC01C701B601F5
:103D10000E94F72020E030E040E050E40E94312390
:103D20000E948F2369837A838B839C8329813A81C4
:103D30004B815C81C301B2010E94F7200E948F2356
:103D40002CEE3FEC48EF5FE30E94C42260938303B4
:103D50007093840380938503909386039B01AC0149
:103D60000E94F823882341F0109283031092840369
:103D70001092850310928603A7019601C501B40134
:103D80000E94F72020E030E040E85FE30E940F202F
:103D900028EF3BE842E95EE30E94312320E030E077
:103DA00040E85FE30E940E206B017C012AED39E9B7
:103DB0004FE950E4C701B6010E94C4220E948F233C
:103DC00060937F03709380038093810390938203B9
:103DD0009B01AC010E94F823882341F010927F03DD
:103DE0001092800310928103109282036091350437
:103DF00070913604809137049091380423E333E9BD
:103E000048E853E40E940F204B015C01C0907F03FF
:103E1000D0908003E0908103F090820320EE3FE495
:103E20004DE45EE3C701B6010E94C4229B01AC01D0
:103E3000C701B6010E94C42220E030E040E85FE301
:103E40000E940F209B01AC01C501B4010E94F72024
:103E500023E333E948E853E40E940E206093A4036F
:103E60007093A5038093A6039093A70380914504C4
:103E7000882309F449C089E994E09F938F9307E967
:103E800014E01F930F930F2EF5E98F2EF4E09F2E71
:103E9000F02D9F928F920F2EF3E2EF2EF1E0FF2E86
:103EA000F02DFF92EF920F2EF1E2CF2EF1E0DF2EF8
:103EB000F02DDF92CF928FE191E09F938F9384E278
:103EC00092E09F938F938AE091E09F938F930E945B
:103ED000302DA0901F01B0902001F601C080F701A5
:103EE000E080F4012081F8014081E9E9F4E060819B
:103EF00000E080E793E00E943903109245040FB67A
:103F0000F894DEBF0FBECDBF80E793E00E94E903C7
:103F10000E94F0120E94D9190E94762960938B04A6
:103F200070938C0480938D0490938E0420918F0461
:103F300030919004621B730B70938A046093890420
:103F40006436710568F180918B0490918C04A09186
:103F50008D04B0918E0440918F0450919004609133
:103F6000910470919204841B950BA60BB70B2091C2
:103F7000890430918A04821B930BA109B10903972C
:103F8000A105B10568F40E94D9190E9476296093B1
:103F90008B0470938C0480938D0490938E04D3CF04
:103FA00080918B0490918C04A0918D04B0918E042B
:103FB00040918F045091900460919104709192040B
:103FC000841B950BA60BB70B85369105A105B10592
:103FD00068F40E94D9190E94762960938B0470932B
:103FE0008C0480938D0490938E04DACFA895649608
:103FF0000FB6F894DEBF0FBECDBFDF91CF911F91FA
:104000000F91FF90EF90DF90CF90BF90AF909F9077
:104010008F907F906F905F904F9008955058BB277E
:10402000AA270E9426200C9469220E94302238F090
:104030000E94372220F039F49F3F19F426F40C94A3
:1040400006220EF4E095E7FB0C940022E92F0E9473
:104050008E2258F3BA17620773078407950720F07A
:1040600079F4A6F50C94B0220EF4E0950B2EBA2F3D
:10407000A02D0B01B90190010C01CA01A00111246E
:10408000FF27591B99F0593F50F4503E68F11A161A
:10409000F040A22F232F342F4427585FF3CF4695AB
:1040A00037952795A795F0405395C9F77EF41F16CD
:1040B000BA0B620B730B840BBAF09150A1F0FF0F97
:1040C000BB1F661F771F881FC2F70EC0BA0F621F83
:1040D000731F841F48F4879577956795B795F79573
:1040E0009E3F08F0B0CF9395880F08F09927EE0F08
:1040F0009795879508950E94302260F080E891E0BE
:1041000009F49EEF0E94372228F040E851E071F454
:104110005EEF0CC00C9406220C94B022E92FE078DC
:104120000E948E2240F3092E052AB1F32617370785
:104130004807590738F00E2E07F8E02569F0E0250A
:10414000E0640AC0EF6307F8009407FADB01B901E5
:104150009D01DC01CA01AD01EF930E940E210E9476
:1041600069220E94BE205F91552339F02BED3FE07C
:1041700049E450FD49EC0C940F200895DF93DD27AE
:10418000B92FBF7740E85FE31616170648075B07AD
:1041900018F4D92F0E94BC229F938F937F936F9323
:1041A0000E94CF23EAEFF1E00E9409220E946922D7
:1041B0002F913F914F915F910E94D722DD2351F0C3
:1041C0009058A2EA2AED3FE049EC5FE3D0785D2702
:1041D0000E942620DF910C9469220E94DC2108F4C1
:1041E00081E008950E944022E3950C947A220E9477
:1041F0000B210C9469220E94372258F00E94302231
:1042000040F029F45F3F29F00C94002251110C94E6
:10421000B1220C9406220E948E2268F39923B1F3F6
:10422000552391F3951B550BBB27AA2762177307DC
:10423000840738F09F5F5F4F220F331F441FAA1F70
:10424000A9F335D00E2E3AF0E0E832D0915050402C
:10425000E695001CCAF72BD0FE2F29D0660F771FDA
:10426000881FBB1F261737074807AB07B0E809F0C0
:10427000BB0B802DBF01FF2793585F4F3AF09E3F45
:10428000510578F00C9400220C94B1225F3FE4F3C6
:10429000983ED4F3869577956795B795F7959F5F88
:1042A000C9F7880F911D9695879597F90895E1E0D4
:1042B000660F771F881FBB1F621773078407BA0733
:1042C00020F0621B730B840BBA0BEE1F88F7E0958E
:1042D00008950E9470216894B1110C94B122089540
:1042E0000E94962288F09F5798F0B92F9927B751CE
:1042F000B0F0E1F0660F771F881F991F1AF0BA958A
:10430000C9F714C0B13091F00E94B022B1E0089515
:104310000C94B022672F782F8827B85F39F0B93F07
:10432000CCF3869577956795B395D9F73EF490953C
:104330008095709561957F4F8F4F9F4F0895E894BA
:1043400009C097FB3EF490958095709561957F4FDD
:104350008F4F9F4F9923A9F0F92F96E9BB2793958B
:10436000F695879577956795B795F111F8CFFAF49B
:10437000BB0F11F460FF1BC06F5F7F4F8F4F9F4FCC
:1043800016C0882311F096E911C0772321F09EE82A
:10439000872F762F05C0662371F096E8862F70E090
:1043A00060E02AF09A95660F771F881FDAF7880F6A
:1043B0009695879597F90895990F0008550FAA0BC0
:1043C000E0E8FEEF16161706E807F907C0F0121628
:1043D0001306E407F50798F0621B730B840B950B2B
:1043E00039F40A2661F0232B242B252B21F4089580
:1043F0000A2609F4A140A6958FEF811D811D08951D
:1044000097F99F6780E870E060E008959FEF80EC87
:104410000895DF93CF931F930F93FF92EF92DF9254
:104420007B018C01689406C0DA2EEF010E94D7222E
:10443000FE01E894A5912591359145915591A6F3FA
:10444000EF010E942620FE019701A801DA9469F786
:10445000DF90EF90FF900F911F91CF91DF91089522
:1044600000240A9416161706180609060895002453
:104470000A94121613061406050608950C940622D3
:104480000E949622D8F3E894E0E0BB279F57F0F013
:104490002AED3FE049EC06C0EE0FBB0F661F771F09
:1044A000881F28F0B23A62077307840728F0B25ACF
:1044B000620B730B840BE3959A9572F7803830F496
:1044C0009A95BB0F661F771F881FD2F790480C94F0
:1044D0003924092E0394000C11F4882352F0BB0FE9
:1044E00040F4BF2B11F460FF04C06F5F7F4F8F4F0C
:1044F0009F4F0895EF93E0FF07C0A2EA2AED3FE047
:1045000049EC5FEB0E9426200E9469220F900394E1
:1045100001FC9058E7E2F2E00C944C2457FD9058CF
:10452000440F551F59F05F3F71F04795880F97FB77
:10453000991F61F09F3F79F0879508951216130631
:104540001406551FF2CF4695F1DF08C01616170660
:104550001806991FF1CF8695710561050894089595
:10456000E894BB2766277727CB0197F908950E9427
:10457000DC2108F48FEF08959B01AC0160E070E04E
:1045800080E89FE30C94F7200E94D7220C946922C4
:104590000E94302238F00E94372220F0952311F03B
:1045A0000C9400220C94062211240C94B1220E9437
:1045B0008E2270F3959FC1F3950F50E0551F629FB7
:1045C000F001729FBB27F00DB11D639FAA27F00D6C
:1045D000B11DAA1F649F6627B00DA11D661F829F93
:1045E0002227B00DA11D621F739FB00DA11D621F78
:1045F000839FA00D611D221F749F3327A00D611D95
:10460000231F849F600D211D822F762F6A2F112476
:104610009F5750409AF0F1F088234AF0EE0FFF1FA9
:10462000BB1F661F771F881F91505040A9F79E3F00
:10463000510580F00C9400220C94B1225F3FE4F30A
:10464000983ED4F3869577956795B795F795E79556
:104650009F5FC1F7FE2B880F911D9695879597F95F
:104660000895FA01EE0FFF1F309621053105A1F1E3
:104670006115710561F48038BFE39B0749F16894C7
:104680009038810561F08038BFEF9B0741F0992396
:104690004AF5FF3FE1053105210519F1E894089439
:1046A000E795D901AA2329F4AB2FBE2FF85FD0F3E9
:1046B00010C0FF5F70F4A695E0F7F73950F019F0DD
:1046C000FF3A38F49F779F930DD00F9007FC9058D6
:1046D000089546F00C94062260E070E080E89FE3C5
:1046E00008954FE79F775F934F933F932F930E94D7
:1046F000A2242F913F914F915F910E94C4220C946C
:1047000005249F930E9440220F9007FCEE5F0C94BB
:104710007A2219F416F40C9406220C9437240E9481
:104720009622B8F39923C9F3B6F39F57550B87FF29
:104730000E9445240024A0E640EA90018058569546
:10474000979528F4805C660F771F881F20F0261746
:104750003707480730F4621B730B840B202931297B
:104760004A2BA69517940794202531254A2758F7F8
:10477000660F771F881F20F026173707480730F489
:10478000620B730B840B200D311D411DA09581F729
:10479000B901842F9158880F9695879508959B01AC
:1047A000AC010C94C422DF93D92F0E944022E695DD
:1047B000D7952AED3FE049E45FE3B33A6207730718
:1047C00084079507D7953AF0A2EA49EC90680E94D1
:1047D00026200E946922E5E4F2E00E944C24DD0FCD
:1047E00013F00E94BC22DD0F0BF49058DF91089566
:1047F0000E94DC21880B990B089529F416F00C9483
:1048000000220C94B0220C9406220E949622A8F357
:104810009638A0F707F80F92E8942BE33AEA48EBB2
:104820005FE70E94DA220F920F920F924DB75EB7A8
:104830000F920E94EA24E8E6F2E00E9409224F91DA
:104840005F91EF91FF91E595EE1FFF1F49F0FE5735
:10485000E0684427EE0F441FFA95E1F74195550BA8
:104860000E9464240F9007FE0C94BC2208959F3F81
:1048700031F0915020F4879577956795B795880F1B
:10488000911D9695879597F9089591505040660F20
:10489000771F881FD2F708959F938F937F936F930D
:1048A000FF93EF939B01AC010E94C422EF91FF9113
:1048B0000E9409222F913F914F915F910C94C42245
:1048C0000C9400220C9437240E949622D8F399234A
:1048D000C9F3940F511DA3F39150504094F059F037
:1048E000882332F0660F771F881F91505040C1F720
:1048F0009E3F51052CF7880F911D9695879597F946
:1049000008955F3FACF0983E9CF0BB278695779565
:104910006795B79508F4B1609395C1F7BB0F58F749
:1049200011F460FFE8CF6F5F7F4F8F4F9F4FE3CF52
:104930000C94B12216F00C9437240C94062268943F
:104940000C9400220E949622A8F39923C1F3AEF39F
:10495000DF93CF931F930F93FF92C92FDD278823F7
:104960002AF02197660F771F881FDAF720E030E0E2
:1049700040E85FEB9FE3883920F0803E38F02196D5
:104980008F770E940F20E0E9F2E004C00E940F2020
:10499000EDEBF2E00E9409228B01BE01EC01FB2E3F
:1049A0006F5771097595771F880B990B0E94A1218C
:1049B00028E132E741E35FE30E94D722AF2D98015F
:1049C000AE01FF900F911F91CF91DF910E942620A1
:1049D0000C946922FA01DC01AA0FBB1F9B01AC01F8
:1049E000BF5728F4222733274427507820C0B751D7
:1049F00090F4AB2F0024469537952795011CA3957D
:104A0000D2F3002071F0220F331F441FB395DAF365
:104A10000ED00C940E2061307105A0E88A07B946CB
:104A200030F49B01AC016627772788279078309671
:104A300021F020833183428353830895FC01918DBB
:104A4000228D892F90E0805C9F4F821B91098F738C
:104A500099270895FC01918D828D981731F0828DF0
:104A6000E80FF11D858D90E008958FEF9FEF089579
:104A7000FC01918D828D981761F0828DDF01A80F66
:104A8000B11D5D968C91928D9F5F9F73928F90E088
:104A900008958FEF9FEF0895FC01538D448D252FCE
:104AA00030E0842F90E0821B930B541710F0CF96C8
:104AB00008950197089582EB96E2892B49F080E0F2
:104AC00090E0892B29F00E94B22681110C940000FD
:104AD0000895FC01848DDF01A80FB11DA35ABF4FBB
:104AE0002C91848D90E001968F739927848FA689ED
:104AF000B7892C93A089B1898C91837080648C9341
:104B0000938D848D981306C00288F389E02D8081EF
:104B10008F7D80830895EF92FF920F931F93CF9321
:104B2000DF93EC0181E0888F9B8D8C8D981305C0FD
:104B3000E889F989808185FD26C0F62E0B8D10E06D
:104B40000F5F1F4F0F731127E02E8C8DE8120CC0E2
:104B50000FB607FCFACFE889F989808185FFF5CF88
:104B6000CE010E946925F1CF8B8DFE01E80FF11D6A
:104B7000E35AFF4FF0829FB7F8940B8FEA89FB89C5
:104B8000808180620AC09FB7F894EE89FF896083B4
:104B9000E889F98980818370806480839FBF81E088
:104BA00090E0DF91CF911F910F91FF90EF900895CA
:104BB000CF93DF93EC01888D8823C9F0EA89FB89C4
:104BC000808185FD05C0A889B9898C9186FD0FC0BB
:104BD0000FB607FCF5CF808185FFF2CFA889B98990
:104BE0008C9185FFEDCFCE010E946925E7CFDF9143
:104BF000CF910895CF92DF92EF92FF921F93CF93C0
:104C0000DF93EC016A017B01122F60E47BE48CE40A
:104C100090E0A70196010E94102BDA01C9010197CB
:104C2000A109B109B695A795979587959C01E88943
:104C3000F98982E08083211580E13807A8F0E889AE
:104C4000F989108260EA75E286E290E0A701960198
:104C50000E94102BDA01C9010197A109B109B6958B
:104C6000A795979587959C01EC85FD853083EE850A
:104C7000FF852083188EEC89FD891083EA89FB89E2
:104C8000808180618083EA89FB898081886080835C
:104C9000EA89FB89808180688083EA89FB89808139
:104CA0008F7D8083DF91CF911F91FF90EF90DF90F8
:104CB000CF9008951F920F920FB60F9211242F9349
:104CC0008F939F93EF93FF93E091CA04F091CB04ED
:104CD0008081E091D004F091D10482FD12C09081D6
:104CE0008091D3048F5F8F732091D404821751F089
:104CF000E091D304F0E0E654FB4F958F8093D3040A
:104D000001C08081FF91EF919F918F912F910F9022
:104D10000FBE0F901F9018951F920F920FB60F9213
:104D200011242F933F934F935F936F937F938F93B0
:104D30009F93AF93BF93EF93FF938AEB94E00E940E
:104D40006925FF91EF91BF91AF919F918F917F91D5
:104D50006F915F914F913F912F910F900FBE0F90E8
:104D60001F9018958AEB94E00E941E2521E0892B64
:104D700009F420E0822F0895EAEBF4E01382128216
:104D800088EE93E0A0E0B0E084839583A683B783A8
:104D90008BE392E09183808385EC90E09587848714
:104DA00084EC90E09787868780EC90E0918B808BF5
:104DB00081EC90E0938B828B82EC90E0958B848BDE
:104DC00086EC90E0978B868B118E128E138E148E4C
:104DD000089508950E94F3290E94E9260E94D7169B
:104DE000CBE5D5E20E941C1A2097E1F30E945B25D7
:104DF000F9CF0C948D2B0C94252CCF92DF92EF924F
:104E0000FF920F931F93CF93DF936C017A018B0175
:104E1000C0E0D0E0CE15DF0581F0D8016D918D01A5
:104E2000D601ED91FC910190F081E02DC60109952C
:104E3000892B11F02196EECF7E01C701DF91CF9132
:104E40001F910F91FF90EF90DF90CF900895611523
:104E5000710579F0FB0101900020E9F73197AF016E
:104E6000461B570BDC01ED91FC910280F381E02D94
:104E7000099480E090E008950C942727DC01ED91DF
:104E8000FC910190F081E02D099469E472E00C94AA
:104E900027270F931F93CF93DF93EC010E942727BF
:104EA0008C01CE010E944527800F911FDF91CF9189
:104EB0001F910F9108950F931F93CF93DF93EC01F0
:104EC0000E943E278C01CE010E944527800F911F32
:104ED000DF91CF911F910F9108958F929F92AF9282
:104EE000BF92EF92FF920F931F93CF93DF93CDB7B3
:104EF000DEB7A1970FB6F894DEBF0FBECDBF7C0121
:104F0000FA01CB0119A2223008F42AE08E010F5DCC
:104F10001F4F822E912CA12CB12CBF01A501940111
:104F20000E94102BF901CA01015011096A3010F4D6
:104F3000605D01C0695CD8016C93232B242B252B69
:104F400061F7B801C7010E942727A1960FB6F89410
:104F5000DEBF0FBECDBFDF91CF911F910F91FF90AC
:104F6000EF90BF90AF909F908F90089521153105DD
:104F700041F4DC01ED91FC910190F081E02D642F72
:104F800009940C946D279A01462F50E060E070E080
:104F90000C94B6279A01AB0160E070E00C94B62740
:104FA0000F931F93CF93DF93EC010E94CA278C01CC
:104FB000CE010E944527800F911FDF91CF911F9155
:104FC0000F910895CF92DF92EF92FF920F931F936C
:104FD000CF93DF932115310581F4DC01ED91FC9134
:104FE0000190F081E02D642FDF91CF911F910F91FF
:104FF000FF90EF90DF90CF9009942A30310501F5B2
:1050000077FF1DC06A017B01EC016DE20E943E2723
:105010008C0144275527BA014C195D096E097F0997
:105020002AE0CE010E946D27800F911FDF91CF9162
:105030001F910F91FF90EF90DF90CF9008952AE09D
:10504000DF91CF911F910F91FF90EF90DF90CF9064
:105050000C946D279A01AB01770F660B770B0C94BC
:10506000E2270F931F93CF93DF93EC010E942A282E
:105070008C01CE010E944527800F911FDF91CF91B7
:105080001F910F9108957F928F929F92AF92BF923E
:10509000CF92DF92EF92FF920F931F93CF93DF9304
:1050A0008C016A017B01722E9A01AB01C701B60126
:1050B0000E94F823882319F06CE472E027C04601AF
:1050C0005701E894B7F82FEF3FEF4FE75FE7C501CF
:1050D000B4010E94F82381110DC02FEF3FEF4FE77D
:1050E0005FE7C501B4010E94ED2018161CF460E5CD
:1050F00072E00CC02FEF3FEF4FE75FE4C701B6014E
:105100000E94B722181694F464E572E0C801DF919A
:10511000CF911F910F91FF90EF90DF90CF90BF90B4
:10512000AF909F908F907F900C9427272FEF3FEFA9
:105130004FE75FECC701B6010E94ED2087FDE4CF89
:1051400020E030E0A901C701B6010E94ED2087FFF1
:105150000AC06DE2C8010E943E27EC01F7FAF09404
:10516000F7F8F09402C0C0E0D0E0B12C60E070E04D
:1051700080E09FE37B1441F020E030E040E251E426
:105180000E94F720B394F6CFA70196010E940F204A
:105190006B017C010E9470214B015C012AE0AB0194
:1051A000BC01C8010E946D27C80FD91F7720B9F133
:1051B000C501B4010E949F219B01AC01C701B6014A
:1051C0000E940E206B017C016EE2C8010E943E2706
:1051D000C80FD91F20E030E040E251E4C701B6011A
:1051E0000E94C4224B015C010E9470216B017C0172
:1051F0004AE050E0C8010E94CA27C80FD91FB60173
:1052000080E090E00E949F219B01AC01C501B401A8
:105210000E940E206B017C017A947110DBCFCE01CD
:10522000DF91CF911F910F91FF90EF90DF90CF9082
:10523000BF90AF909F908F907F9008950F931F9392
:10524000CF93DF93EC010E9443288C01CE010E9492
:105250004527800F911FDF91CF911F910F910895E6
:105260001F920F920FB60F9211242F933F938F939B
:105270009F93AF93BF938091580590915905A0914A
:105280005A05B0915B053091570526E6230F2D375F
:1052900028F029EE230F0196A11DB11D209357057B
:1052A0008093580590935905A0935A05B0935B05D8
:1052B00080915C0590915D05A0915E05B0915F05C0
:1052C0000196A11DB11D80935C0590935D05A0938F
:1052D0005E05B0935F05BF91AF919F918F913F9114
:1052E0002F910F900FBE0F901F9018952FB7F89425
:1052F000609158057091590580915A0590915B0510
:105300002FBF08959FB7F89440915C0550915D05BB
:1053100060915E0570915F0586B5A89B06C08F3FC2
:1053200021F04F5F5F4F6F4F7F4F9FBF762F652FED
:10533000542F44279A01AB01280F311D411D511DE7
:10534000A3E0B0E00E94572B08958F929F92AF92F6
:10535000BF92CF92DF92EF92FF926B017C010E948D
:1053600082294B015C01C114D104E104F10401F173
:105370000E94EB2A0E948229DC01CB01881999093D
:10538000AA09BB09883E9340A105B10560F321E05D
:10539000C21AD108E108F10888EE880E83E0981E51
:1053A000A11CB11CC114D104E104F10419F7DBCF35
:1053B000FF90EF90DF90CF90BF90AF909F908F9035
:1053C000089500000000000000008230910550F0B8
:1053D0009C01220F331F220F331F0797820F931F49
:1053E0000197F1F70895789484B5826084BD84B5FF
:1053F000816084BD85B5826085BD85B5816085BDD0
:10540000EEE6F0E0808181608083E1E8F0E01082E8
:10541000808182608083808181608083E0E8F0E029
:10542000808181608083E1EBF0E080818460808313
:10543000E0EBF0E0808181608083EAE7F0E080814A
:1054400084608083808182608083808181608083AA
:105450008081806880831092C1000895833081F03C
:1054600028F4813099F08230A1F008958730A9F0B6
:105470008830B9F08430D1F4809180008F7D03C0F2
:10548000809180008F7780938000089584B58F7716
:1054900002C084B58F7D84BD08958091B0008F7760
:1054A00003C08091B0008F7D8093B0000895CF93AA
:1054B000DF9390E0FC01EB5BFC4F2491FC01E75A89
:1054C000FC4F8491882361F190E0880F991FFC01C3
:1054D000EF57FC4FC591D491FC01E958FC4FA591C1
:1054E000B491611109C09FB7F894888120958223F7
:1054F0008883EC912E230BC0623061F49FB7F8943F
:105500008881322F309583238883EC912E2B2C9326
:105510009FBF06C08FB7F894E8812E2B28838FBFDA
:10552000DF91CF9108951F93CF93DF93282F30E021
:10553000F901EF5CFC4F8491F901EB5BFC4FD491D6
:10554000F901E75AFC4FC491CC23C1F0162F811109
:105550000E942E2AEC2FF0E0EE0FFF1FE958FC4FBF
:10556000A591B4919FB7F894111104C08C91D09576
:10557000D82302C0EC91DE2BDC939FBFDF91CF914B
:105580001F910895CF93DF93282F30E0F901EF5C4E
:10559000FC4F8491F901EB5BFC4FD491F901E75A80
:1055A000FC4FC491CC2391F081110E942E2AEC2F44
:1055B000F0E0EE0FFF1FE359FC4FA591B491EC9181
:1055C000ED2381E090E021F480E002C080E090E0F3
:1055D000DF91CF9108950895DB018F939F930E94EF
:1055E000572BBF91AF91A29F800D911DA39F900D4E
:1055F000B29F900D1124089597FB072E16F4009486
:1056000007D077FD09D00E946A2B07FC05D03EF435
:10561000909581959F4F0895709561957F4F08955E
:10562000A1E21A2EAA1BBB1BFD010DC0AA1FBB1FA6
:10563000EE1FFF1FA217B307E407F50720F0A21B18
:10564000B30BE40BF50B661F771F881F991F1A9485
:1056500069F760957095809590959B01AC01BD01AF
:10566000CF010895052E97FB1EF400940E94492B4C
:1056700057FD07D00E94102B07FC03D04EF40C946A
:10568000492B50954095309521953F4F4F4F5F4F97
:10569000089590958095709561957F4F8F4F9F4F9E
:1056A0000895EE0FFF1F0590F491E02D09940E94DC
:1056B0007E2BA59F900DB49F900DA49F800D911DF2
:1056C00011240895B7FF0C94572B0E94572B821B6F
:1056D000930B0895AA1BBB1B51E107C0AA1FBB1F58
:1056E000A617B70710F0A61BB70B881F991F5A956E
:1056F000A9F780959095BC01CD010895A29FB001B6
:10570000B39FC001A39F700D811D1124911DB29FF5
:10571000700D811D1124911D08950F931F93CF9338
:10572000DF938230910510F482E090E0E091620511
:10573000F091630520E030E0A0E0B0E0309719F18F
:10574000408151810281138148175907C8F084179D
:10575000950769F4109731F012960C9312971396EF
:105760001C9327C0009362051093630522C0211586
:10577000310519F04217530718F49A01BD01EF01E2
:10578000DF01F801DBCF21153105F9F0281B390BBA
:105790002430310580F48A819B816115710521F0E7
:1057A000FB019383828304C0909363058093620519
:1057B000FE01329644C0FE01E20FF31F81939193E4
:1057C00022503109398328833AC0209160053091F5
:1057D0006105232B41F420910201309103013093A4
:1057E0006105209360052091000130910101211590
:1057F000310541F42DB73EB74091040150910501A8
:10580000241B350BE0916005F0916105E217F30769
:10581000A0F42E1B3F0B2817390778F0AC014E5F20
:105820005F4F2417350748F04E0F5F1F50936105F7
:10583000409360058193919302C0E0E0F0E0CF01D6
:10584000DF91CF911F910F910895CF93DF93009730
:1058500009F481C0FC01329713821282A091620583
:10586000B0916305109781F420813181820F931FDD
:1058700020916005309161052817390751F5F093A3
:105880006105E093600567C0ED0120E030E0CE17D0
:10589000DF0740F44A815B819E0141155105F1F01B
:1058A000EA01F5CFD383C28340815181840F951FD4
:1058B000C817D90759F488819981840F951F0296DA
:1058C000918380838A819B81938382832115310513
:1058D00029F4F0936305E09362053DC0E901FB8381
:1058E000EA8349915991C40FD51FEC17FD0761F464
:1058F00080819181840F951F0296E90199838883A5
:10590000828193819B838A83E0E0F0E012968D91FF
:105910009C911397009719F0FD01DC01F7CF8D9151
:105920009C9111979D012E5F3F4F820F931F2091F5
:105930006005309161052817390769F4309729F41B
:10594000109263051092620502C013821282B09316
:105950006105A0936005DF91CF91089566277727B1
:105960000C94F62FFC0188279927E8942191203286
:10597000E9F3293010F02E30C8F32B3241F02D32EC
:1059800039F4689404C00E94282D820F911D219142
:1059900020532A30C0F31EF4909581959F4F0895AF
:1059A00048E552E00E94012D0895FC01819186177F
:1059B00021F08823D9F7992708953197CF010895C9
:1059C000FB01DC0101900D920020E1F70895FB013D
:1059D00051915523A9F0BF01DC014D9145174111AB
:1059E000E1F759F4CD010190002049F04D914015A7
:1059F0004111C9F3FB014111EFCF81E090E0019724
:105A00000895FA01A191B081009719F41097E1F07F
:105A1000CD01DC01CD010D90002011F4C00113C0B7
:105A2000FB012191222319F02015D9F7F3CFFB01B7
:105A30002191201519F41E92119606C02223C1F758
:105A40000D900020A1F7D001FA01A193B083089531
:105A50007AE0979F902D879F802D910D11240895B6
:105A6000AEE0B0E0E6E3FDE20C94DA3185E08C8351
:105A70008B899C899A838983AE01495E5F4F6D89CA
:105A80007E89CE0101960E94E52E2E96E2E00C94CE
:105A9000F63120FD09C0FC0123FD05C022FF02C034
:105AA0007383628351834083089544FD17C046FD8C
:105AB00017C0AB01BC01DA01FB01AA0FBB1FEE1F2F
:105AC000FF1F1094D1F74A0F5B1F6E1F7F1FCB0182
:105AD000BA01660F771F881F991F09C033E001C004
